:020000040800F2
:1000000000000220C5100008D1060008D306000831
:10001000D5060008D7060008D90600080000000031
:10002000000000000000000000000000DB060008E7
:10003000DD06000800000000DF060008E1060008F9
:1000400015110008151100081511000815110008F8
:1000500015110008151100081511000815110008E8
:1000600015110008151100081511000815110008D8
:1000700015110008151100081511000815110008C8
:1000800015110008151100081511000815110008B8
:1000900015110008151100081511000815110008A8
:1000A0001511000815110008151100081511000898
:1000B0001511000815110008151100081511000888
:1000C0001511000815110008151100081511000878
:1000D0001511000815110008151100081511000868
:1000E0001511000815110008151100081511000858
:1000F0001511000815110008151100081511000848
:100100001511000815110008151100081511000837
:100110001511000815110008151100081511000827
:100120001511000815110008151100081511000817
:100130001511000815110008151100081511000807
:1001400015110008151100081511000815110008F7
:1001500015110008151100081511000815110008E7
:1001600015110008151100081511000815110008D7
:1001700015110008151100081511000800000000F5
:0801800015110008151100081B
:1001880010B5054C237833B9044B13B10448AFF3C9
:1001980000800123237010BD0C0000200000000027
:1001A8007011000808B5034B1BB103490348AFF3AE
:1001B800008008BD00000000100000207011000839
:1001C80053B94AB9002908BF00281CBF4FF0FF31B6
:1001D8004FF0FF3000F072B9ADF1080C6DE904CEB4
:1001E80000F006F8DDF804E0DDE9022304B070470A
:1001F8002DE9F047089E04468846002B4BD18A42D9
:10020800154667D9B2FA82F24AB1C2F1200701FA5B
:1002180002F320FA07F7954047EA030894404FEAAB
:10022800154E230CB8FBFEF71FFA85FC0EFB17884A
:1002380043EA084307FB0CF1994209D9EB1807F187
:10024800FF3080F01B81994240F21881023F2B4415
:100258005B1AA4B2B3FBFEF00EFB103344EA03446E
:1002680000FB0CFCA44509D92C1900F1FF3380F0E0
:100278000781A44540F2048102382C4440EA074033
:10028800A4EB0C0400271EB1D4400023C6E90043A8
:100298003946BDE8F0878B4209D9002E00F0EB8083
:1002A8000027C6E9000138463946BDE8F087B3FAA9
:1002B80083F7002F47D18B4202D3824200F2FA80A3
:1002C800841A61EB030301209846002EE0D0C6E9AA
:1002D8000048DDE702B9FFDEB2FA82F2002A40F0F8
:1002E8008F80491B4FEA154E1FFA85F80127B1FB8D
:1002F800FEFC230C0EFB1C1143EA014308FB0CF126
:10030800994207D9EB180CF1FF3002D2994200F25A
:10031800CD808446591AA3B2B1FBFEF00EFB10142F
:1003280043EA044408FB00F8A04507D92C1900F15A
:10033800FF3302D2A04500F2B6801846A4EB0804A9
:1003480040EA0C409FE7C7F1200CBB4022FA0CFEA4
:100358004EEA030E01FA07F420FA0CF521FA0CF321
:100368004FEA1E482543B3FBF8F92C0C08FB193358
:100378001FFA8EFA44EA034309FB0AF49C4202FA84
:1003880007F200FA07F10BD91EEB030309F1FF305E
:1003980080F087809C4240F28480A9F1020973446E
:1003A8001B1BADB2B3FBF8F008FB103345EA03445E
:1003B80000FB0AFAA24508D91EEB040400F1FF333A
:1003C8006BD2A24569D90238744440EA0940A0FBBF
:1003D8000289A4EB0A044C45C2464B4654D351D07B
:1003E800002E69D0B1EB0A0564EB030404FA0CFC97
:1003F800FD40FC404CEA0505C6E90054002747E7E4
:10040800C2F1200320FA03F7954001FA02F021FA1D
:1004180003F34FEA154E3843010CB3FBFEF71FFAFE
:1004280085F80EFB173341EA034107FB08F38B42BB
:1004380004FA02F407D9691807F1FF3C2FD28B425E
:100448002DD9023F2944CB1A81B2B3FBFEF00EFB33
:10045800103341EA034100FB08F38B4207D96918BE
:1004680000F1FF3C17D28B4215D902382944C91A2A
:1004780040EA07473BE73746304609E70746E7E6DD
:100488001846FBE64145ABD2B8EB020A69EB0E020F
:1004980001381346A4E76046E9E7184695E767463A
:1004A800D1E781467CE702382C4447E7ACF1020CDF
:1004B8002B442FE7384608E73746E9E6704700BF80
:1004C80070B58AB00024059406940794089409949A
:1004D8000194244B1A6B42F080021A631A6B02F0E3
:1004E80080020192019A02941A6B42F008021A6380
:1004F8001A6B02F008020292029A03941A6B42F0F5
:1005080001021A631A6B02F001020392039A04941F
:100518001A6B42F002021A631B6B03F00203049386
:10052800049B114E22464FF46041304600F0A2FA77
:100538004FF4604305930123069307940225089519
:1005480005A9304600F0B2F94FF48073059306957B
:1005580007940894099405A9044800F0A7F90AB07B
:1005680070BD00BF00380240000C0240000002408D
:1005780030B595B03022002108A800F0EDFD002428
:100588000394049405940694079401941D4B1A6CE3
:1005980042F080521A641B6C03F080530193019B54
:1005A8000294194B1A6842F480421A601B6803F4DB
:1005B80080430293029B0225089501230B93102385
:1005C8000C930E950F94082310937823119312958A
:1005D8000423139308A800F057FA0F2303930495F4
:1005E80005944FF4A05306934FF4805307930321C7
:1005F80003A800F0B7FC22462146204600F010FC74
:1006080015B030BD003802400070004008B500F059
:10061800B1F8FFF7ADFFFFF753FF1C4C4FF4005143
:10062800204600F02DFA4FF4FA7000F0CFF84FF49E
:100638000051204600F024FA4FF4FA7000F0C6F892
:100648004FF48041204600F01BFA4FF4FA7000F096
:10065800BDF84FF48041204600F012FA4FF4FA70CA
:1006680000F0B4F84FF40041204600F009FA4FF4C6
:10067800FA7000F0ABF84FF40041204600F000FAA1
:100688004FF4FA7000F0A2F8C7E700BF000C024070
:1006980082B0002100910B4B5A6C42F480425A649C
:1006A8005A6C02F480420092009A01911A6C42F04E
:1006B80080521A641B6C03F080530193019B02B0B3
:1006C800704700BF003802407047FEE7FEE7FEE7CC
:1006D800FEE770477047704708B500F065F808BD39
:1006E8000F49D1F8883043F47003C1F888300D4BB6
:1006F8001A6842F001021A60002098601A6822F015
:10070800847222F480321A60074A5A601A6822F406
:1007180080221A60D8604FF000638B60704700BF7A
:1007280000ED00E0003802401030002410B5044607
:100738000E4B18784FF47A73B3FBF0F30C4A106839
:10074800B0FBF3F000F09CF868B90F2C01D9012038
:100758000AE0002221464FF0FF3000F05DF8034B1D
:100768005C60002000E0012010BD00BF04000020F4
:100778000000002008B50B4B1A6842F400721A609A
:100788001A6842F480621A601A6842F480721A6029
:10079800032000F02FF80020FFF7C8FFFFF778FFCD
:1007A800002008BD003C0240034A1168034B1B7837
:1007B8000B441360704700BF28000020040000208D
:1007C800014B1868704700BF2800002038B5044660
:1007D800FFF7F6FF0546B4F1FF3F02D0044B1B7844
:1007E8001C44FFF7EDFF401BA042FAD338BD00BF01
:1007F80004000020074AD36823F4E0631B041B0CA1
:10080800000200F4E060184340F0BF6040F400309C
:10081800D060704700ED00E030B4174BDB68C3F3DD
:100828000223C3F10704042C28BF04241D1D062D30
:1008380018D9033B4FF0FF3505FA04F421EA040107
:10084800994005FA03F322EA0303194300280BDB56
:100858000901C9B200F1604000F5614080F8001359
:1008680030BC70470023E5E700F00F000901C9B26A
:10087800024B1954F4E700BF00ED00E014ED00E06E
:100888000138B0F1807F0AD2064B5860064AF02141
:1008980082F823100020986007221A607047012010
:1008A800704700BF10E000E000ED00E000230F2BD0
:1008B80000F2D780F0B482B039E0072200E00022CD
:1008C800B2403A430234674E46F82420664A146818
:1008D800EA4302EA04064F6817F4803F01D045EA6C
:1008E8000406614C2660646802EA04064F6817F43F
:1008F800003F01D045EA04065B4C6660A46802EA42
:1009080004064F6817F4801F01D045EA0406564CC8
:10091800A660E46822404E6816F4001F01D045EA3C
:100928000402514CE26001330F2B00F29780012240
:100938009A400C6804EA0205AA42F4D14C68022CD9
:1009480001D0122C10D1DE08083650F826C003F06A
:100958000704A7000F24BC402CEA040C0C69BC4017
:1009680044EA0C0440F8264004685F000326BE40B1
:10097800F64306EA040C4C6804F00304BC4044EA5D
:100988000C0404604C6804F1FF3CBCF1010F03D96E
:10099800112C01D0122C10D1846806EA040CCC6802
:1009A800BC4044EA0C048460446824EA02024C68AF
:1009B800C4F300149C4014434460C26816408A681B
:1009C800BA403243C2604A6812F0805FABD000225E
:1009D8000192264A546C44F480445464526C02F4E4
:1009E80080420192019A9C08A61C1E4A52F8267061
:1009F80003F0030296000F22B24027EA02071C4ABE
:100A080090423FF45CAF02F5806290421AD002F542
:100A18008062904218D002F58062904216D002F5AA
:100A28008062904214D002F58062904212D002F5A2
:100A38008062904210D002F5806290423FF43DAF50
:100A480008223DE701223BE7022239E7032237E784
:100A5800042235E7052233E7062231E702B0F0BC6D
:100A68007047704700380140003C014000380240A0
:100A78000000024012B90904816170478161704722
:100A88004369594041617047002800F0BB8170B547
:100A980082B00446036813F0010F3BD0A74B9B6854
:100AA80003F00C03042B2CD0A44B9B6803F00C031D
:100AB800082B21D06368B3F5803F4FD0B3F5A02F42
:100AC80052D09E4B1A6822F480321A601A6822F4B7
:100AD80080221A606368002B50D0FFF771FE05462C
:100AE800964B1B6813F4003F14D1FFF769FE401BB7
:100AF8006428F5D903208AE1904B5B6813F4800FD2
:100B0800D8D08E4B1B6813F4003F03D06368002BCA
:100B180000F07A81236813F0020F55D0874B9B6849
:100B280013F00C0F3ED0854B9B6803F00C03082B89
:100B380033D0E368002B68D0814B01221A60FFF79D
:100B48003FFE05467D4B1B6813F0020F54D1FFF79B
:100B580037FE401B0228F5D9032058E1774A13686D
:100B680043F480331360B5E7744B1A6842F480226B
:100B78001A601A6842F480321A60ABE7FFF720FE69
:100B880005466E4B1B6813F4003FC3D0FFF718FEF1
:100B9800401B6428F5D9032039E1684B5B6813F4DE
:100BA800800FC6D1654B1B6813F0020F04D0E368B1
:100BB800012B01D001202AE1604A136823F0F803D1
:100BC800216943EAC1031360236813F0080F40D07A
:100BD800636963B35B4B01221A60FFF7F1FD0546B9
:100BE800564B5B6F13F0020F33D1FFF7E9FD401B43
:100BF8000228F5D903200AE1504A136823F0F803C4
:100C0800216943EAC1031360DEE74D4B00221A60F5
:100C1800FFF7D6FD0546494B1B6813F0020FD3D0EA
:100C2800FFF7CEFD401B0228F5D90320EFE0454B26
:100C380000221A60FFF7C4FD0546404B5B6F13F0B6
:100C4800020F06D0FFF7BCFD401B0228F5D9032090
:100C5800DDE0236813F0040F79D0384B1B6C13F0D8
:100C6800805F33D100230193344B1A6C42F08052D9
:100C78001A641B6C03F080530193019B0125324BCE
:100C88001B6813F4807F23D0A368012B34D0052B75
:100C980038D02A4B1A6F22F001021A671A6F22F015
:100CA80004021A67A368002B36D0FFF789FD0646B1
:100CB800224B1B6F13F0020F48D1FFF781FD801BF9
:100CC80041F288339842F3D90320A0E00025D6E703
:100CD8001D4A136843F480731360FFF771FD0646DD
:100CE800194B1B6813F4807FCED1FFF769FD801B79
:100CF8000228F5D903208AE0104A136F43F0010354
:100D08001367CFE70D4B1A6F42F004021A671A6F88
:100D180042F001021A67C5E7FFF752FD0646074B86
:100D28001B6F13F0020F11D0FFF74AFD801B41F231
:100D380088339842F3D9032069E000BF00380240A5
:100D480000004742800E474200700040E5B9A369A1
:100D5800002B5BD0304A926802F00C02082A58D067
:100D6800022B17D02D4B00221A60FFF729FD0446ED
:100D7800294B1B6813F0007F42D0FFF721FD001BB1
:100D88000228F5D9032042E0234A136C23F080534C
:100D98001364DCE7214B00221A60FFF711FD0546BA
:100DA8001D4B1B6813F0007F06D0FFF709FD401BA1
:100DB8000228F5D903202AE0E369226A1343626A0C
:100DC80043EA8213A26A5208013A43EA0243E26AFA
:100DD80043EA0263104A5360104B01221A60FFF77E
:100DE800EFFC04460C4B1B6813F0007F06D1FFF79D
:100DF800E7FC001B0228F5D9032008E0002006E0E4
:100E0800002004E001207047012000E0002002B02B
:100E180070BD0120FBE700BF003802406000474278
:100E280070B588B00C46164608B300230293204DCF
:100E38002A6B42F004022A632A6B02F0040202922F
:100E4800029A4FF40072039202220492032206923D
:100E58000593079303A91748FFF728FDAB6823F00C
:100E6800784344EAC6041C43AC6008B070BD002354
:100E780001930F4D2A6B42F001022A632A6B02F09C
:100E880001020192019A4FF48072039202220492A5
:100E9800032206920593079303A90748FFF706FD67
:100EA800AB6823F0EC6334431C43AC60DDE700BF60
:100EB800003802400008024000000240264B9B68B0
:100EC80003F00C03042B44D0082B01D023487047AF
:100ED8002DE9F04B204B5A6802F03F025B6813F48F
:100EE800800F13D01C4B5968C1F3881100231C488C
:100EF800A1FB0001FFF764F9174B5B68C3F30143DB
:100F080001335B00B0FBF3F0BDE8F08B124B5B687C
:100F1800C3F388131E4600275C010025E41A65EB1D
:100F28000705A90141EA9461A001001B61EB0501D5
:100F3800CB0043EA5073C400A01943EB07018B02AE
:100F480043EA90538402204619460023FFF738F9F4
:100F5800D2E70348704700BF003802400024F4007D
:100F680040787D01002800F09D8070B504464F4B05
:100F78001B6803F00F038B4209D2CBB24B4A1370A4
:100F8800136803F00F038B4201D0012070BD236862
:100F980013F0020F17D013F0040F04D0444A9368DB
:100FA80043F4E0539360236813F0080F04D0404AD9
:100FB800936843F4604393603D4A936823F0F003D9
:100FC800A068034393600D46236813F0010F32D0E5
:100FD8006368012B21D09A1E012A25D9344A126848
:100FE80012F0020F60D032498A6822F003021343DC
:100FF8008B60FFF7E5FB06462D4B9B6803F00C035F
:101008006268B3EB820F16D0FFF7DAFB801B41F260
:1010180088339842F0D90320B8E7254A126812F4B9
:10102800003FE0D10120B1E7214A126812F0007FA9
:10103800D9D10120AAE71D4B1B6803F00F03AB426F
:1010480009D9EAB2194B1A701B6803F00F03AB42B7
:1010580001D001209AE7236813F0040F06D0144A40
:10106800936823F4E053E1680B439360236813F01B
:10107800080F07D00E4A936823F46043216943EAB6
:10108800C1039360FFF71AFF094B9B68C3F303136F
:10109800084AD35CD840084B18600020FFF746FB8D
:1010A800002073E70120704701206FE7003C0240F1
:1010B800003802408811000800000020DFF834D012
:1010C800002103E00C4B5B58435004310B480C4B98
:1010D80042189A42F6D30B4A02E0002342F8043B36
:1010E800094B9A42F9D3FFF7FBFA00F011F8FFF722
:1010F8008DFA704700000220B0110008000000209F
:101108000C0000200C0000202C000020FEE700004E
:1011180070B50D4E0D4CA41BA4100025A54209D195
:101128000B4E0C4C00F020F8A41BA4100025A5427F
:1011380005D170BD56F8253098470135EEE756F8C9
:10114800253098470135F2E7A8110008A8110008D2
:10115800A8110008AC11000802440346934200D1CC
:10116800704703F8011BF9E7F8B500BFF8BC08BCE5
:101178009E467047F8B500BFF8BC08BC9E4670474D
:10118800000000000000000001020304060708092F
:08119800000000000102030445
:0811A00058F0FF7F0100000080
:0411A800AD0100088D
:0411AC0089010008AD
:0C11B0000024F40001000000100000000A
:04000005080010C51A
:00000001FF
