:020000040800F2
:10000000000002207D1D0008E1090008E309000846
:10001000E5090008E7090008E909000800000000F8
:10002000000000000000000000000000EB090008D4
:10003000ED09000800000000EF090008F1090008C0
:10004000CD1D0008CD1D0008CD1D0008CD1D0008E8
:10005000CD1D0008CD1D0008CD1D0008CD1D0008D8
:10006000CD1D0008CD1D0008CD1D0008CD1D0008C8
:10007000CD1D0008CD1D0008CD1D0008CD1D0008B8
:10008000CD1D0008CD1D0008CD1D0008CD1D0008A8
:10009000CD1D0008CD1D0008CD1D0008CD1D000898
:1000A000CD1D0008CD1D0008CD1D0008CD1D000888
:1000B000CD1D0008CD1D0008CD1D0008CD1D000878
:1000C000CD1D0008CD1D0008CD1D0008CD1D000868
:1000D000CD1D0008CD1D0008CD1D0008CD1D000858
:1000E000CD1D0008CD1D0008CD1D0008CD1D000848
:1000F000CD1D0008CD1D0008CD1D0008CD1D000838
:10010000CD1D0008CD1D0008CD1D0008CD1D000827
:10011000CD1D0008CD1D0008CD1D0008CD1D000817
:10012000CD1D0008CD1D0008CD1D0008CD1D000807
:10013000CD1D0008CD1D0008CD1D0008CD1D0008F7
:10014000CD1D0008CD1D0008CD1D0008CD1D0008E7
:10015000CD1D0008CD1D0008CD1D0008CD1D0008D7
:10016000CD1D0008CD1D0008CD1D0008CD1D0008C7
:10017000CD1D0008CD1D0008CD1D000800000000A9
:08018000CD1D0008CD1D000893
:1001880010B5054C237833B9044B13B10448AFF3C9
:1001980000800123237010BD24000020000000000F
:1001A800281E000808B5034B1BB103490348AFF3E9
:1001B800008008BD0000000028000020281E00085C
:1001C80053B94AB9002908BF00281CBF4FF0FF31B6
:1001D8004FF0FF3000F072B9ADF1080C6DE904CEB4
:1001E80000F006F8DDF804E0DDE9022304B070470A
:1001F8002DE9F047089E04468846002B4BD18A42D9
:10020800154667D9B2FA82F24AB1C2F1200701FA5B
:1002180002F320FA07F7954047EA030894404FEAAB
:10022800154E230CB8FBFEF71FFA85FC0EFB17884A
:1002380043EA084307FB0CF1994209D9EB1807F187
:10024800FF3080F01B81994240F21881023F2B4415
:100258005B1AA4B2B3FBFEF00EFB103344EA03446E
:1002680000FB0CFCA44509D92C1900F1FF3380F0E0
:100278000781A44540F2048102382C4440EA074033
:10028800A4EB0C0400271EB1D4400023C6E90043A8
:100298003946BDE8F0878B4209D9002E00F0EB8083
:1002A8000027C6E9000138463946BDE8F087B3FAA9
:1002B80083F7002F47D18B4202D3824200F2FA80A3
:1002C800841A61EB030301209846002EE0D0C6E9AA
:1002D8000048DDE702B9FFDEB2FA82F2002A40F0F8
:1002E8008F80491B4FEA154E1FFA85F80127B1FB8D
:1002F800FEFC230C0EFB1C1143EA014308FB0CF126
:10030800994207D9EB180CF1FF3002D2994200F25A
:10031800CD808446591AA3B2B1FBFEF00EFB10142F
:1003280043EA044408FB00F8A04507D92C1900F15A
:10033800FF3302D2A04500F2B6801846A4EB0804A9
:1003480040EA0C409FE7C7F1200CBB4022FA0CFEA4
:100358004EEA030E01FA07F420FA0CF521FA0CF321
:100368004FEA1E482543B3FBF8F92C0C08FB193358
:100378001FFA8EFA44EA034309FB0AF49C4202FA84
:1003880007F200FA07F10BD91EEB030309F1FF305E
:1003980080F087809C4240F28480A9F1020973446E
:1003A8001B1BADB2B3FBF8F008FB103345EA03445E
:1003B80000FB0AFAA24508D91EEB040400F1FF333A
:1003C8006BD2A24569D90238744440EA0940A0FBBF
:1003D8000289A4EB0A044C45C2464B4654D351D07B
:1003E800002E69D0B1EB0A0564EB030404FA0CFC97
:1003F800FD40FC404CEA0505C6E90054002747E7E4
:10040800C2F1200320FA03F7954001FA02F021FA1D
:1004180003F34FEA154E3843010CB3FBFEF71FFAFE
:1004280085F80EFB173341EA034107FB08F38B42BB
:1004380004FA02F407D9691807F1FF3C2FD28B425E
:100448002DD9023F2944CB1A81B2B3FBFEF00EFB33
:10045800103341EA034100FB08F38B4207D96918BE
:1004680000F1FF3C17D28B4215D902382944C91A2A
:1004780040EA07473BE73746304609E70746E7E6DD
:100488001846FBE64145ABD2B8EB020A69EB0E020F
:1004980001381346A4E76046E9E7184695E767463A
:1004A800D1E781467CE702382C4447E7ACF1020CDF
:1004B8002B442FE7384608E73746E9E6704700BF80
:1004C80000B589B000220592069207920092154B5A
:1004D800196B41F080011963196B01F080010091DB
:1004E80000990192196B41F001011963196B01F030
:1004F80001010191019902921A6B42F002021A63FA
:100508001B6B03F002030293029B4FF48073039367
:100518000223049303A9044800F0A6FB09B05DF880
:1005280004FB00BF003802400000024008B50B4839
:100538000B4B03600B4B436000238360C3604FF495
:100548008042026143618361C361036200F0BCFDC4
:1005580000B908BD00F0C8F8FBE700BF4804002058
:1005680000540040801A060030B589B00023039378
:1005780004930593069307930268154B9A4201D09A
:1005880009B030BD00250195124C236B43F00203DE
:100598002363236B03F002030193019B4FF4407321
:1005A800039312230493012305930323069304233F
:1005B800079303A9084800F057FB0295236C43F4FE
:1005C80000132364236C03F400130293029BD7E700
:1005D80000540040003802400004024030B595B095
:1005E8003022002108A801F013FC0024039404948D
:1005F80005940694079401941D4B1A6C42F080529E
:100608001A641B6C03F080530193019B0294194BED
:100618001A6842F480421A601B6803F4804302930C
:10062800029B0225089501230B9310230C930E952A
:100638000F9408231093782311931295042313938E
:1006480008A800F08DFE0F230393049505944FF43A
:10065800A05306934FF480530793032103A801F096
:10066800EDF822462146204601F046F815B030BD87
:10067800003802400070004008B500F059FAFFF752
:10068800ADFFFFF71DFFFFF751FF00F0D7F900F0AE
:1006980079F80021084600F07BF9104C012394E812
:1006A80006000F4800F05CF900F044F84FF4FA60D7
:1006B80000F06AFA002000F02DF80021084600F04A
:1006C80067F9012394E80600064800F049F900F0AC
:1006D80031F84FF4FA6000F057FADAE70800002022
:1006E8006C460008784600087047000000B587B0DF
:1006F80006AA02F8010D0A2302930123019300922E
:1007080000227821024800F06DFD07B05DF804FB77
:1007180048040020002303E0FF21054AD154013397
:10072800B3F5806F03D20028F6D10021F5E77047B2
:100738004000002010B584B000241AE0A4F1500055
:10074800C0B2FFF7D3FF0020FFF7D0FF1020FFF75C
:10075800CDFF6423029380230193084B03EBC4135A
:100768000093012340227821054800F03BFD013425
:10077800E4B2072CE2D904B010BD00BF400000204D
:100788004804002008B5642000F0FEF9AE20FFF709
:10079800ADFF2020FFF7AAFF1020FFF7A7FFB0202A
:1007A800FFF7A4FFC820FFF7A1FF0020FFF79EFF77
:1007B8001020FFF79BFF4020FFF798FF8120FFF7ED
:1007C80095FFFF20FFF792FFA120FFF78FFFA620DC
:1007D800FFF78CFFA820FFF789FF3F20FFF786FF70
:1007E800A420FFF783FFD320FFF780FF0020FFF747
:1007F8007DFFD520FFF77AFFF020FFF777FFD9209C
:10080800FFF774FF2220FFF771FFDA20FFF76EFF72
:100818001220FFF76BFFDB20FFF768FF2020FFF7B0
:1008280065FF8D20FFF762FF1420FFF75FFFAF2001
:10083800FFF75CFF0020FFF76DFFFFF77BFF054B1D
:100848000022A3F80024A3F80224012083F8050459
:1008580008BD00BF4000002010F0800F16D13F29CE
:1008680014D8114B93F8043413B1B2FA82F2520936
:10087800012A0CD0CB0800EBC31001F007010123BB
:100888008B40094A115C21EA030111547047CB08D7
:1008980000EBC31001F0070101238B40024A115CF1
:1008A80019431154704700BF400000202DE9F04F54
:1008B80083B002AC04E90600284AB2F800249DF887
:1008C800006032447F2A43DC244AB2F802249DF8AF
:1008D80001A0D34652443F2A3EDC98468146002573
:1008E80023E01E4BB3F80004B3F802142944204453
:1008F800B8FA88F25209C9B2C0B2FFF7ADFF0134A5
:10090800A64211D907FA04F313F4004FE9D0134BA8
:10091800B3F80004B3F80214294420444246C9B28B
:10092800C0B2FFF799FFEAE70135AA4508D9A9F14E
:10093800200303FB0B53019A32F813700024DFE7FE
:10094800064BB3F800241644A3F80064484600E0B8
:10095800002003B0BDE8F08F0020FAE74000002037
:1009680070B582B0054602A800E906001E462C783C
:100978005CB1334602AA12E906002046FFF796FF4B
:100988002C78A04201D10135F1E7204602B070BDB4
:10099800024BA3F80004A3F802147047400000209B
:1009A80082B0002100910B4B5A6C42F480425A6489
:1009B8005A6C02F480420092009A01911A6C42F03B
:1009C80080521A641B6C03F080530193019B02B0A0
:1009D800704700BF003802407047FEE7FEE7FEE7B9
:1009E800FEE770477047704708B500F0BBF808BDD0
:1009F8000F49D1F8883043F47003C1F888300D4BA3
:100A08001A6842F001021A60002098601A6822F001
:100A1800847222F480321A60074A5A601A6822F4F3
:100A280080221A60D8604FF000638B60704700BF67
:100A380000ED00E0003802401030002408B50A48F4
:100A48000A4B03604FF4E133436000238360C360C3
:100A580003610C2242618361C36101F05BF900B953
:100A680008BDFFF741FEFBE79C0400200010014091
:100A780000B589B000230393049305930693079365
:100A8800026803F1804303F588339A4202D009B023
:100A98005DF804FB0021019103F594335A6C42F090
:100AA80010025A645A6C02F010020192019A0291E3
:100AB8001A6B42F001021A631B6B03F001030293E5
:100AC800029B4FF4C063039302230493012305930D
:100AD800032306930723079303A9024800F0C4F8E9
:100AE800D5E700BF0000024010B504460E4B187849
:100AF8004FF47A73B3FBF0F30C4A1068B0FBF3F0D1
:100B080000F09CF868B90F2C01D901200AE00022F6
:100B180021464FF0FF3000F05DF8034B5C60002089
:100B280000E0012010BD00BF1C00002018000020BC
:100B380008B50B4B1A6842F400721A601A6842F43E
:100B480080621A601A6842F480721A60032000F00A
:100B58002FF80020FFF7C8FFFFF722FF002008BD8D
:100B6800003C0240034A1168034B1B780B44136096
:100B7800704700BFDC0400201C000020014B1868EF
:100B8800704700BFDC04002038B50446FFF7F6FFC5
:100B98000546B4F1FF3F02D0044B1B781C44FFF715
:100BA800EDFF401BA042FAD338BD00BF1C00002057
:100BB800074AD36823F4E0631B041B0C000200F40B
:100BC800E060184340F0BF6040F40030D0607047E8
:100BD80000ED00E030B4174BDB68C3F30223C3F128
:100BE8000704042C28BF04241D1D062D18D9033B17
:100BF8004FF0FF3505FA04F421EA0401994005FA9B
:100C080003F322EA0303194300280BDB0901C9B2E5
:100C180000F1604000F5614080F8001330BC704777
:100C28000023E5E700F00F000901C9B2024B19548F
:100C3800F4E700BF00ED00E014ED00E00138B0F18A
:100C4800807F0AD2064B5860064AF02182F82310AA
:100C58000020986007221A6070470120704700BF83
:100C680010E000E000ED00E000230F2B00F2D78039
:100C7800F0B482B039E0072200E00022B2403A43E3
:100C88000234674E46F82420664A1468EA4302EAAA
:100C980004064F6817F4803F01D045EA0406614C0A
:100CA8002660646802EA04064F6817F4003F01D022
:100CB80045EA04065B4C6660A46802EA04064F68CD
:100CC80017F4801F01D045EA0406564CA660E46874
:100CD80022404E6816F4001F01D045EA0402514C28
:100CE800E26001330F2B00F2978001229A400C68D2
:100CF80004EA0205AA42F4D14C68022C01D0122C55
:100D080010D1DE08083650F826C003F00704A70003
:100D18000F24BC402CEA040C0C69BC4044EA0C04C7
:100D280040F8264004685F000326BE40F64306EA02
:100D3800040C4C6804F00304BC4044EA0C0404604E
:100D48004C6804F1FF3CBCF1010F03D9112C01D010
:100D5800122C10D1846806EA040CCC68BC4044EA22
:100D68000C048460446824EA02024C68C4F300144A
:100D78009C4014434460C26816408A68BA403243B3
:100D8800C2604A6812F0805FABD000220192264A06
:100D9800546C44F480445464526C02F480420192CE
:100DA800019A9C08A61C1E4A52F8267003F00302FA
:100DB80096000F22B24027EA02071C4A90423FF4ED
:100DC8005CAF02F5806290421AD002F580629042D0
:100DD80018D002F58062904216D002F580629042E7
:100DE80014D002F58062904212D002F580629042DF
:100DF80010D002F5806290423FF43DAF08223DE7F3
:100E080001223BE7022239E7032237E7042235E7CC
:100E1800052233E7062231E702B0F0BC704770477D
:100E280000380140003C0140003802400000024008
:100E380003685A6912F4806F0DD06FF480625A61AA
:100E48000423036400230363202280F83D2080F8F4
:100E58003C300120704700207047F8B506460C4624
:100E680017461D461EE02DB1FFF788FE069BC01AE7
:100E7800A84217D900233363202286F83D2086F83C
:100E88003E3086F83C3003201AE033685B6924EA78
:100E980003039BB2B3FA83F35B099F420FD1B5F109
:100EA800FF3FE0D1C4F30743012BEED033689B69C1
:100EB80024EA03039BB2B3FA83F35B09EDE700204E
:100EC800F8BDF8B504460D4616461F4632E01A68C6
:100ED80042F400721A6023686FF480625A61042336
:100EE800236400232363202284F83D2084F83C30C7
:100EF80001202DE026B1FFF741FEC01BB04219D9F1
:100F080000232363202284F83D2084F83C3003200A
:100F18001EE023685B6925EA03039BB2003318BF10
:100F28000123A3B123685A6912F4806FCFD1B6F1B7
:100F3800FF3FDFD1C5F30743012BEAD023689B6944
:100F480025EA03039BB2003318BF0123E9E7002019
:100F5800F8BD70B504460D46164623685B6913F064
:100F6800800F19D12046FFF763FFB8B9B5F1FF3FED
:100F7800F3D025B1FFF702FE801BA842EDD9236C00
:100F880043F02003236400232363202284F83D20B8
:100F980084F83C30032000E0002070BD0120FCE70D
:100FA8002DE9F04184B004460E46174698460B9D3D
:100FB8000268136843F48073136000950A9B00224B
:100FC8004FF00111FFF749FF002847D1236806F0C9
:100FD800FE061E612B460A9A26492046FFF771FF36
:100FE80020B1236C042B3ED1012338E00023039366
:100FF80023685A6903929B690393039B2A460A99BB
:101008002046FFF7A6FF034648B1236C042B2CD1DA
:101018002268136843F40073136001231FE0B8F1DA
:10102800010F13D023683A0A1A612A460A99204602
:10103800FFF78FFF034668B1236C042B17D1226892
:10104800136843F400731360012308E02268FFB2B9
:10105800176104E02268FFB2176100E00323184615
:1010680004B0BDE8F0810323F9E70323F7E703237E
:10107800F5E700BF0200010070B504460D461646AC
:1010880023685B6913F0040F19D12046FFF7D0FEDF
:10109800B8B9B5F1FF3FF3D025B1FFF76FFD801B5D
:1010A800A842EDD9236C43F0200323640023236373
:1010B800202284F83D2084F83C30032000E0002002
:1010C80070BD0120FCE70000002800F0828010B508
:1010D800044690F83D30002B41D0242384F83D305D
:1010E8002268136823F00103136000F059FC3A4B9F
:1010F800A3FB00239B0C226853606168374A914226
:1011080032D80133226813626368344A934235D86F
:101118005B00B0FBF3F0C0F30B03032B00D80420F3
:101128002368D861E369216A22680B431360236945
:10113800E16822680B4393606369A16922680B43E5
:10114800D3602268136843F0010313600020206411
:10115800202384F83D30206384F83E0010BD80F8D9
:101168003C30FFF701FAB8E74FF4967202FB03F33D
:101178001B4AA2FB03239B090133C3E7A16889B972
:1011880003EB4302B0FBF2F2C2F30B02B2FA82F2B3
:101198005209E2B991B903EB4303B0FBF3F040F411
:1011A8000040BDE703EB830202EB8202B0FBF2F2E0
:1011B800C2F30B02B2FA82F25209EAE703EB8303A5
:1011C80003EB8303B0FBF3F040F44040A8E70120B1
:1011D800A6E70120704700BF83DE1B43A0860100FD
:1011E800D34D62102DE9F04182B004460E461746F1
:1011F8009846FFF7C3FC94F83D30DBB2202B04D0AF
:101208000223184602B0BDE8F08105460090192374
:10121800012251492046FFF720FE002840F0938024
:1012280094F83C30012B00F09080012384F83C3086
:1012380023681A6812F0010F03D11A6842F00102FC
:101248001A602268136823F400631360212384F86A
:101258003D30402384F83E3000232364089B6362BA
:10126800BDF8243063853D4BE362638D238501958A
:101278000A9B009343463A4631462046FFF790FEC4
:10128800B0B1236C042B04D1002384F83C30012333
:10129800B7E7002384F83C300323B2E7236C042B20
:1012A80055D12268136843F4007313600123A8E73B
:1012B800238D002B28D02A460A992046FFF749FE9D
:1012C8000028EBD1636A5A1C626222681B7813619A
:1012D800238D013B9BB22385628D013A92B26285D0
:1012E8002268516911F0040FE2D0002BE0D0636A44
:1012F800591C61621B781361238D013B2385638D23
:10130800013B9BB26385D3E72A460A992046FFF73B
:10131800B3FE034648B1236C042B1AD12268136824
:1013280043F40073136001236BE721680A6842F4F1
:1013380000720A60202284F83D20002284F83E20B2
:1013480084F83C205DE702235BE7022359E7032387
:1013580057E7032355E700BF020010000000FFFF16
:10136800002800F0BB8170B582B00446036813F012
:10137800010F3BD0A74B9B6803F00C03042B2CD028
:10138800A44B9B6803F00C03082B21D06368B3F5CA
:10139800803F4FD0B3F5A02F52D09E4B1A6822F44D
:1013A80080321A601A6822F480221A606368002B5F
:1013B80050D0FFF7E3FB0546964B1B6813F4003F3C
:1013C80014D1FFF7DBFB401B6428F5D903208AE121
:1013D800904B5B6813F4800FD8D08E4B1B6813F4C6
:1013E800003F03D06368002B00F07A81236813F074
:1013F800020F55D0874B9B6813F00C0F3ED0854BDE
:101408009B6803F00C03082B33D0E368002B68D0EB
:10141800814B01221A60FFF7B1FB05467D4B1B6823
:1014280013F0020F54D1FFF7A9FB401B0228F5D98E
:10143800032058E1774A136843F480331360B5E713
:10144800744B1A6842F480221A601A6842F4803297
:101458001A60ABE7FFF792FB05466E4B1B6813F467
:10146800003FC3D0FFF78AFB401B6428F5D903204F
:1014780039E1684B5B6813F4800FC6D1654B1B6874
:1014880013F0020F04D0E368012B01D001202AE1F8
:10149800604A136823F0F803216943EAC103136023
:1014A800236813F0080F40D0636963B35B4B0122D4
:1014B8001A60FFF763FB0546564B5B6F13F0020F8C
:1014C80033D1FFF75BFB401B0228F5D903200AE163
:1014D800504A136823F0F803216943EAC1031360F3
:1014E800DEE74D4B00221A60FFF748FB0546494BE3
:1014F8001B6813F0020FD3D0FFF740FB401B0228F4
:10150800F5D90320EFE0454B00221A60FFF736FBC0
:101518000546404B5B6F13F0020F06D0FFF72EFB1A
:10152800401B0228F5D90320DDE0236813F0040FDF
:1015380079D0384B1B6C13F0805F33D100230193B3
:10154800344B1A6C42F080521A641B6C03F08053BF
:101558000193019B0125324B1B6813F4807F23D034
:10156800A368012B34D0052B38D02A4B1A6F22F0F0
:1015780001021A671A6F22F004021A67A368002B87
:1015880036D0FFF7FBFA0646224B1B6F13F0020F0B
:1015980048D1FFF7F3FA801B41F288339842F3D918
:1015A8000320A0E00025D6E71D4A136843F48073A2
:1015B8001360FFF7E3FA0646194B1B6813F4807FA4
:1015C800CED1FFF7DBFA801B0228F5D903208AE089
:1015D800104A136F43F001031367CFE70D4B1A6FDF
:1015E80042F004021A671A6F42F001021A67C5E74F
:1015F800FFF7C4FA0646074B1B6F13F0020F11D012
:10160800FFF7BCFA801B41F288339842F3D90320D4
:1016180069E000BF0038024000004742800E4742A0
:1016280000700040E5B9A369002B5BD0304A92688E
:1016380002F00C02082A58D0022B17D02D4B00229A
:101648001A60FFF79BFA0446294B1B6813F0007FCA
:1016580042D0FFF793FA001B0228F5D9032042E095
:10166800234A136C23F080531364DCE7214B0022D8
:101678001A60FFF783FA05461D4B1B6813F0007FBD
:1016880006D0FFF77BFA401B0228F5D903202AE091
:10169800E369226A1343626A43EA8213A26A520820
:1016A800013A43EA0243E26A43EA0263104A53609A
:1016B800104B01221A60FFF761FA04460C4B1B68B5
:1016C80013F0007F06D1FFF759FA001B0228F5D95D
:1016D800032008E0002006E0002004E00120704715
:1016E800012000E0002002B070BD0120FBE700BF30
:1016F800003802406000474270B588B00C46164674
:1017080008B300230293204D2A6B42F004022A6397
:101718002A6B02F004020292029A4FF400720392BA
:1017280002220492032206920593079303A91748FD
:10173800FFF79AFAAB6823F0784344EAC6041C43DF
:10174800AC6008B070BD002301930F4D2A6B42F0C6
:1017580001022A632A6B02F001020192019A4FF4F6
:101768008072039202220492032206920593079341
:1017780003A90748FFF778FAAB6823F0EC63344312
:101788001C43AC60DDE700BF00380240000802409F
:1017980000000240264B9B6803F00C03042B44D046
:1017A800082B01D0234870472DE9F04B204B5A688D
:1017B80002F03F025B6813F4800F13D01C4B59688A
:1017C800C1F3881100231C48A1FB0001FEF7F8FCB7
:1017D800174B5B68C3F3014301335B00B0FBF3F0C5
:1017E800BDE8F08B124B5B68C3F388131E460027D5
:1017F8005C010025E41A65EB0705A90141EA94613B
:10180800A001001B61EB0501CB0043EA5073C40043
:10181800A01943EB07018B0243EA90538402204648
:1018280019460023FEF7CCFCD2E70348704700BFF7
:10183800003802400024F40040787D01002800F0C0
:101848009D8070B504464F4B1B6803F00F038B4215
:1018580009D2CBB24B4A1370136803F00F038B42C3
:1018680001D0012070BD236813F0020F17D013F0C8
:10187800040F04D0444A936843F4E0539360236808
:1018880013F0080F04D0404A936843F46043936010
:101898003D4A936823F0F003A068034393600D4624
:1018A800236813F0010F32D06368012B21D09A1EF0
:1018B800012A25D9344A126812F0020F60D0324941
:1018C8008A6822F0030213438B60FFF757F9064634
:1018D8002D4B9B6803F00C036268B3EB820F16D0A4
:1018E800FFF74CF9801B41F288339842F0D9032066
:1018F800B8E7254A126812F4003FE0D10120B1E7A9
:10190800214A126812F0007FD9D10120AAE71D4BA5
:101918001B6803F00F03AB4209D9EAB2194B1A70DE
:101928001B6803F00F03AB4201D001209AE723683C
:1019380013F0040F06D0144A936823F4E053E168C7
:101948000B439360236813F0080F07D00E4A93687F
:1019580023F46043216943EAC1039360FFF71AFF48
:10196800094B9B68C3F30313084AD35CD840084B60
:1019780018600020FFF7B8F8002073E701207047CF
:1019880001206FE7003C024000380240544600083E
:1019980018000020014B1868704700BF180000208D
:1019A80008B5FFF7F7FF044B9B68C3F38223034A8C
:1019B800D35CD84008BD00BF003802406446000828
:1019C80008B5FFF7E7FF044B9B68C3F34233034AAC
:1019D800D35CD84008BD00BF003802406446000808
:1019E8002DE9F843044601680A6922F44052C368A5
:1019F80013430B610168CA6822F4164222F00C02F4
:101A080083680069034360690343E0690343134340
:101A1800CB6021684A6922F44072A36913434B6181
:101A2800E369B3F5004F60D02368B84A934200F0E9
:101A3800148102F58062934200F00F81FFF7B0FF36
:101A480000EB800000EB80006568AD00B0FBF5F5A9
:101A5800AF4FA7FB05356D092E01FFF7A1FF00EB7E
:101A6800800000EB80006568AD00B0FBF5F9FFF77A
:101A780097FF00EB800000EB80006568AD00B0FBCD
:101A8800F5F5A7FB05356D094FF0640808FB1595BA
:101A98002D013235A7FB05356D0905F0F0053544F4
:101AA800FFF77EFF00EB800000EB80006668B60061
:101AB800B0FBF6F6FFF774FF00EB800000EB800048
:101AC80063689B00B0FBF3F0A7FB0030400908FBFC
:101AD80010684FEA081808F13208A7FB0837C7F35F
:101AE800431723682F449F600DE12368874A934278
:101AF8005BD002F58062934257D0FFF751FF00EBAD
:101B0800800000EB800065686D00B0FBF5F5804F44
:101B1800A7FB05356D092E01FFF742FF00EB80009A
:101B280000EB800065686D00B0FBF5F9FFF738FF42
:101B380000EB800000EB800065686D00B0FBF5F5F8
:101B4800A7FB05356D094FF0640808FB1595ED00F6
:101B58003235A7FB05356D096D0005F4F875354478
:101B6800FFF71EFF00EB800000EB80006668760040
:101B7800B0FBF6F6FFF714FF00EB800000EB8000E7
:101B880063685B00B0FBF3F3A7FB03235B0908FB67
:101B980013684FEAC80808F13208A7FB0837C7F3EB
:101BA800421723682F449F60ADE0FFF709FF00EB61
:101BB800800000EB800065686D00B0FBF5F5544FC0
:101BC800A7FB05356D092E01FFF7FAFE00EB800033
:101BD80000EB800065686D00B0FBF5F9FFF7F0FEDB
:101BE80000EB800000EB800065686D00B0FBF5F548
:101BF800A7FB05356D094FF0640808FB1595ED0046
:101C08003235A7FB05356D096D0005F4F8753544C7
:101C1800FFF7D6FE00EB800000EB800066687600D8
:101C2800B0FBF6F6FFF7CCFE00EB800000EB80007F
:101C380063685B00B0FBF3F3A7FB03235B0908FBB6
:101C480013684FEAC80808F13208A7FB0837C7F33A
:101C5800421723682F449F6055E0FFF7B1FE00EB61
:101C6800800000EB80006568AD00B0FBF5F5284FFB
:101C7800A7FB05356D092E01FFF7A2FE00EB8000DA
:101C880000EB80006568AD00B0FBF5F9FFF798FE42
:101C980000EB800000EB80006568AD00B0FBF5F557
:101CA800A7FB05356D094FF0640808FB15952D0154
:101CB8003235A7FB05356D0905F0F0053544FFF70A
:101CC8007FFE00EB800000EB80006668B600B0FB8A
:101CD800F6F6FFF775FE00EB800000EB8000636806
:101CE8009B00B0FBF3F0A7FB0030400908FB10682D
:101CF8004FEA081808F13208A7FB0837C7F343175B
:101D080023682F449F60BDE8F88300BF001001409E
:101D18001F85EB5158B310B5044690F839300BB312
:101D2800242384F839302268D36823F40053D3601D
:101D38002046FFF755FE2268136923F49043136188
:101D48002268536923F02A0353612268D36843F455
:101D58000053D3600020E063202384F8393084F8EE
:101D68003A3010BD80F83830FEF782FED8E70120FF
:101D780070470000DFF834D0002103E00C4B5B58BB
:101D8800435004310B480C4B42189A42F6D30B4A85
:101D980002E0002342F8043B094B9A42F9D3FEF7CC
:101DA80027FE00F011F8FEF767FC704700000220DC
:101DB8009446000800000020240000202400002091
:101DC800E0040020FEE7000070B50D4E0D4CA41B8A
:101DD800A4100025A54209D10B4E0C4C00F020F8A8
:101DE800A41BA4100025A54205D170BD56F82530C6
:101DF80098470135EEE756F8253098470135F2E760
:101E08008C4600088C4600088C460008904600085E
:101E180002440346934200D1704703F8011BF9E7D7
:101E2800F8B500BFF8BC08BC9E467047F8B500BFBF
:081E3800F8BC08BC9E4670478F
:101E40000000000000000000000000000000000092
:101E50000000000000000000000000000000000082
:101E60000000000000000000000000000000000072
:101E700000000000E003E003E003E003E003E00310
:101E8000E003E003C003C003C001C001C001C00102
:101E9000C001000000000000E003E003E0030000D8
:101EA00000000000000000003C1E3C1E3C1E3C1ECA
:101EB0003C1E3C1E3C1E0000000000000000000014
:101EC0000000000000000000000000000000000012
:101ED000000000000000000000000000CE01CE0362
:101EE000DE039E039C039C07FF3FFF7F3807380FEC
:101EF000780F780F780EFFFFFFFFF01EF01CE01C3C
:101F0000E03CE03DE039000000000000000000007F
:101F1000FC03FE0FEE1FE01EE01EE01EE01EE01FB1
:101F2000E00FE007F003FC01FE01FE01FE01FE01EF
:101F3000FE01FE01FE3DFC3FF00FE001E00100006C
:101F400000000000033E07F78FE78EE79EE3BCE347
:101F5000B8E7F8E7F0F7E03FC001FF03FF07F3073A
:101F6000F30FF31EF33CF338F3787FF03FE000000B
:101F70000000000000000000E007F80F780F781F55
:101F8000781F781F780FF00FE00F801FC37FC3FB0F
:101F9000E7F3F7F1F7F0FFF07FF03EF87F7CFF3FCB
:101FA000EF1F00000000000000000000E003E0035D
:101FB000E003E003E003C003C001000000000000F4
:101FC0000000000000000000000000000000000011
:101FD0000000000000000000000000000000000001
:101FE0003F007C00F001E001C003C00780078007CC
:101FF000800F000F000F000F000F000F000F800F69
:1020000080078007C007C003E001F0017C003F00AB
:102010000F000000007E001FC007C003E001F001B8
:10202000F000F000F8007800780078007800780080
:102030007800F800F000F000F001E001C003C007F4
:10204000001F007E00780000E003C003C001CE390D
:10205000FF3F7F3F20037003F807780F3C1F3806CF
:102060000000000000000000000000000000000070
:102070000000000000000000000000000000000060
:102080000000000000000000C001C001C001C0014C
:10209000C001C001C001FFFFFFFFC001C001C001BE
:1020A000C001C001C00100000000000000000000ED
:1020B0000000000000000000000000000000000020
:1020C0000000000000000000000000000000000010
:1020D0000000E003E003E003E003E001E001E001D1
:1020E000C0018003000000000000000000000000AC
:1020F00000000000000000000000FE3FFE3F000066
:1021000000000000000000000000000000000000CF
:1021100000000000000000000000000000000000BF
:1021200000000000000000000000000000000000AF
:1021300000000000000000000000E003E003E003F6
:10214000E003000000000000000000000F000F008E
:102150001E001E003C003C0078007800F000F000FB
:10216000E001E001C003C00380078007000F000FFB
:10217000001E001E003C003C0078007800F00000CB
:10218000F007F80F7C1F3E3E1E3C1F7C1F7C0F7823
:102190000F780F780F780F780F780F781F7C1F7CDF
:1021A0001E3C3E3E7C1FF80FF007000000000000C0
:1021B00000000000F000F007F03FF03FF001F001F8
:1021C000F001F001F001F001F001F001F001F00187
:1021D000F001F001F001F001F001FF3FFF3F0000CE
:1021E0000000000000000000E00FF83F7C3C3C00D5
:1021F0003E003E003E003C003C007C00F800F00148
:10220000E003C0078007000F001E003E003CFE3FB9
:10221000FE3F00000000000000000000F00FF81F6B
:102220007C1C3E003E003E003C003C00F800F00FED
:10223000F80F7C003E001E001E001E001E003E0027
:102240007C1CF81FE01F00000000000000000000E0
:102250007800F800F800F801F803F807F807780F9D
:10226000781E781E783C78787878FFFFFFFF78003A
:102270007800780078007800780000000000000006
:1022800000000000FC1FFC1FFC1F001E001E001EA3
:10229000001E001EE01FF81FFC007C003E003E00F8
:1022A0001E003E003E003C007C1CF81FE01F0000AA
:1022B0000000000000000000FC01FE078E0F001F60
:1022C000001E003E003C003CF83DFC3F3E7F1F7E70
:1022D0000F3C0F3C0F3C0F3C0F3E1F1E3E1FFC0FE0
:1022E000F00300000000000000000000FF3FFF3F7F
:1022F000FF3F0F001E001E003C0038007800F00079
:10230000F000E001E001C003C0038007800F800FF0
:10231000000F001F001F0000000000000000000070
:10232000F807FC0F3E1F1E1E1E3E1E3E1E1E3C1FBB
:10233000F80FF007F80FFC1E3E3E1F3C1F7C0F7C81
:102340000F7C1F3C3E3FFC1FF00700000000000018
:1023500000000000F007F80F7C1E3E3C1E3C1F7C76
:102360001F7C1F7C1F7C1F3C3F3EFF1FEF071F0091
:102370001E001E003E003C00F838F03FE01F000049
:10238000000000000000000000000000000000004D
:1023900000000000E003E003E003E00300000000B1
:1023A00000000000000000000000E003E003E00384
:1023B000E00300000000000000000000000000003A
:1023C0000000000000000000E003E003E003E00381
:1023D0000000000000000000000000000000E0031A
:1023E000E003E003E003E001E001E001C00380035B
:1023F00000000000000000000000000003000F00CB
:102400003F00FC00F003C00F003F00FE003FC00F84
:10241000F003FC003F000F0003000000000000007C
:1024200000000000000000000000000000000000AC
:102430000000000000000000FFFFFFFF00000000A0
:102440000000FFFFFFFF0000000000000000000090
:10245000000000000000000000000000000000007C
:102460000000000000E000F8007E801FE007F80197
:102470007E001F007E00F801E007801F007E00F84C
:1024800000E000000000000000000000F01FFC3F22
:102490003E381F381F381E001E003C007800F00038
:1024A000E001C003C003C007C00700000000000037
:1024B000C007C007C00700000000000000000000C7
:1024C000F803FE0F1E1F0F3E7F3CFF78EF79C773A6
:1024D000C7F38FF38FF38FF39FF39FF3FF73FF7BAC
:1024E000F779003C1C1FFC0FF803000000000000FF
:1024F00000000000000000000000E003E003F0071F
:10250000F007F007780F780F7C0E3C1E3C1E3E3C17
:10251000FE3FFF3F1F780F780FF007F007F0000035
:102520000000000000000000000000000000F83F74
:10253000FC3F3E3C1E3C1E3C1E3C3E3C7C3CF03F77
:10254000F83F7E3C1F3C1F3C0F3C0F3C1F3CFE3FB6
:10255000F83F000000000000000000000000000044
:102560000000FF01FF07871F003E003C007C007851
:102570000078007800780078007C007C003E003F06
:10258000831FFF07FF0100000000000000000000A3
:10259000000000000000F07FFC7F7E781F781F782D
:1025A0000F780F780F780F780F780F780F780F78F3
:1025B0001F781E787E78F87FE07F00000000000022
:1025C00000000000000000000000FF3FFF3F003E51
:1025D000003E003E003E003E003EFE3FFE3F003E0D
:1025E000003E003E003E003E003EFF3FFF3F000039
:1025F0000000000000000000000000000000FF1FBD
:10260000FF1F001E001E001E001E001E001EFF1FDA
:10261000FF1F001E001E001E001E001E001E001ECA
:10262000001E00000000000000000000000000008C
:102630000000FE03FF0F871F003E007C007C007837
:1026400000F800F87FF87FF80F780F7C0F7C0F3EC2
:102650008F1FFF0FFE0300000000000000000000BD
:102660000000000000001F7C1F7C1F7C1F7C1F7C63
:102670001F7C1F7C1F7CFF7FFF7F1F7C1F7C1F7CBC
:102680001F7C1F7C1F7C1F7C1F7C00000000000043
:1026900000000000000000000000FF3FFF3FE003DB
:1026A000E003E003E003E003E003E003E003E00312
:1026B000E003E003E003E003E003FF3FFF3F00002F
:1026C0000000000000000000000000000000FC1FEF
:1026D000FC1F7C007C007C007C007C007C007C007B
:1026E0007C007C007C007C0078007800F838F03FAB
:1026F000C03F0000000000000000000000000000DB
:1027000000001F3C1E3C3C3C783CF03CE03DE03F80
:10271000C03F803FC03FE03FF03DF03C783C7C3C18
:102720003E3C1F3C0F3C0000000000000000000089
:10273000000000000000003E003E003E003E003E63
:10274000003E003E003E003E003E003E003E003E99
:10275000003E003E003EFF3FFF3F00000000000043
:10276000000000000000000000001FF81FFC1FFC1C
:102770003FFE3FFE3FFE7FFF77FF77FFF7F7E7F76C
:10278000E7F3E7F3C7F307F007F007F007F00000FF
:1027900000000000000000000000000000000F7CAE
:1027A0000F7C0F7E0F7F0F7F8F7F8F7FCF7FEF7B21
:1027B000EF79FF79FF78FF787F783F783F781F784F
:1027C0001F78000000000000000000000000000072
:1027D0000000F007FC1F3E3E1F7C0F780F780FF8BB
:1027E0000FF80FF80FF80FF80FF80F780F781F7C1D
:1027F0003E3EFC1FF007000000000000000000004B
:10280000000000000000FC3FFF3F1F3E0F3E0F3E58
:102810000F3E0F3E1F3E3F3EFC3FF03F003E003E5E
:10282000003E003E003E003E003E00000000000072
:1028300000000000000000000000F007FC1F3E3E0A
:102840001F7C0F780F780FF80FF80FF80FF80FF8BC
:102850000FF80F780F781F7C3E3EFC1FF8077C00B6
:102860003F000F0003000000000000000000F03FE8
:10287000FC3F7E3C3E3C1E3C1E3C3E3C3C3CFC3C0B
:10288000F03FE03FF03DF83C7C3C3E3C1E3C1F3CB2
:102890000F3C0000000000000000000000000000ED
:1028A0000000FC07FE1F0E3E003C003C003C003ECA
:1028B000C01FF80FFE037F001F000F000F001F2036
:1028C0003E3CFC3FF01F0000000000000000000044
:1028D000000000000000FFFFFFFFE003E003E00353
:1028E000E003E003E003E003E003E003E003E003D0
:1028F000E003E003E003E003E00300000000000069
:10290000000000000000000000000F7C0F7C0F7C26
:102910000F7C0F7C0F7C0F7C0F7C0F7C0F7C0F7C5F
:102920000F7C0F7C1E3C1E3C3E3EFC1FF00700004F
:10293000000000000000000000000000000007F0A0
:1029400007F007F80F780F7C1E3C1E3C1E3E3C1E15
:102950003C1F781F780FF80FF007F007F007E0032F
:10296000E003000000000000000000000000000084
:10297000000003E003F003F007F0E7F3E7F3E7F309
:10298000E773F77BF77FFF7F7F7F7F7F7E7F7E3FD1
:102990003E3E3E3E3E3E00000000000000000000C3
:1029A00000000000000007F80F7C1E3E3E3E3C1F6A
:1029B000F80FF007E007E003E003F007F80F7C0FE3
:1029C0007C1E3E3C1F780F780FF0000000000000D6
:1029D0000000000000000000000007F807780F7CEE
:1029E0001E3C1E3E3C1F780FF80FF007E003E0038B
:1029F000E003E003E003E003E003E003E0030000A2
:102A00000000000000000000000000000000FF7F48
:102A1000FF7F0F001F003E007C00F800F000E00187
:102A2000E003C007800F000F001E003E007CFF7F08
:102A3000FF7F00000000000000000000FF0780078B
:102A4000800780078007800780078007800780074E
:102A5000800780078007800780078007800780073E
:102A600080078007800780078007FF07FF070000B7
:102A700000780078003C003C001E001E000F000F94
:102A800080078007C003C003E001E001F000F00010
:102A9000780078003C003C001E001E000F000F0074
:102AA00007000000F07FF000F000F000F000F00000
:102AB000F000F000F000F000F000F000F000F00096
:102AC000F000F000F000F000F000F000F000F00086
:102AD000F000F07FF07F0000C000C001C001E00303
:102AE000E003F007F0077807780F380F3C1E3C1E14
:102AF0001E3C1E3C0F380F780778000000000000D5
:102B000000000000000000000000000000000000C5
:102B100000000000000000000000000000000000B5
:102B200000000000000000000000000000000000A5
:102B3000000000000000FFFFFFFF00000000000099
:102B4000F000000000000000000000000000000095
:102B50000000000000000000000000000000000075
:102B60000000000000000000000000000000000065
:102B70000000000000000000000000000000000055
:102B8000F80FFC3F7C3C3E003E003E00FE07FE1F6F
:102B90003E3E3E7C3E783E7C7E7CFF3FCF1F000069
:102BA0000000000000000000003C003C003C003C35
:102BB000003C003CF83DFE3F3E3F1F3E0F3C0F3CBB
:102BC0000F3C0F3C0F3C0F3C1F3C1E3C3E3FFC3F6C
:102BD000F03B0000000000000000000000000000CA
:102BE0000000000000000000FE03FF0F871F003EF2
:102BF000003E003C007C007C007C003C003E003E2F
:102C0000871FFF0FFE03000000000000000000000F
:102C10001F001F001F001F001F001F00FF07FF1FD6
:102C20003F3E1F3C1F7C1F7C1F7C1F781F781F7C32
:102C30001F7C3F3C7F3EFF1FDF0F000000000000B5
:102C40000000000000000000000000000000000084
:102C5000F803FC0F3E1F1E3E1F3C1F7CFF7FFF7FC3
:102C6000007C007C003C003E071FFF0FFE030000BD
:102C70000000000000000000FF01E103C003C007E6
:102C8000C007C007FF7FFF7FC007C007C007C0079E
:102C9000C007C007C007C007C007C007C007C007FC
:102CA000C00700000000000000000000000000005D
:102CB0000000000000000000EF07FF1F7F3E1F3CE8
:102CC0001F7C1F7C1F781F781F781F7C1F7C3F3C58
:102CD0007F3EFF1FDF0F1E001E001E007C38F83FE6
:102CE000003C003C003C003C003C003CFC3DFE3F06
:102CF0009E3F1F3F1F3E1F3C1F3C1F3C1F3C1F3C75
:102D00001F3C1F3C1F3C1F3C1F3C000000000000FC
:102D100000000000F001F0010000000000000000D1
:102D2000E07FE07FE001E001E001E001E001E0019F
:102D3000E001E001E001E001E001E001E00100006C
:102D40000000000000000000F800F8000000000093
:102D500000000000F83FF83FF800F800F800F80025
:102D6000F800F800F800F800F800F800F800F800A3
:102D7000F800F800F800F000F071E07F003C003C43
:102D8000003C003C003C003C1F3C3E3C7C3CF83C92
:102D9000F03DE03DC03FC03FE03FF03DF83C7C3CB3
:102DA0003E3C1F3C1F3C00000000000000000000F3
:102DB000F07FF001F001F001F001F001F001F0010D
:102DC000F001F001F001F001F001F001F001F0017B
:102DD000F001F001F001F001F0010000000000003E
:102DE00000000000000000000000000000000000E3
:102DF0009EF7FFFFFFFFFFFFE7FBE7F9C7F1C7F112
:102E0000C7F1C7F1C7F1C7F1C7F1C7F1C7F10000BA
:102E100000000000000000000000000000000000B2
:102E200000000000FC3DFE3F9E3F1F3F1F3E1F3C39
:102E30001F3C1F3C1F3C1F3C1F3C1F3C1F3C1F3CBA
:102E40001F3C000000000000000000000000000027
:102E50000000000000000000F007FC1F3E3E1F3C89
:102E60001F7C0F780F780F780F780F781F7C1F3C2E
:102E70003E3EFC1FF00700000000000000000000C4
:102E8000000000000000000000000000F83DFE3FD0
:102E90003E3F1F3E0F3C0F3C0F3C0F3C0F3C0F3C96
:102EA0001F3C1E3E3E3FFC3FF83F003C003C003CC8
:102EB000003C003C0000000000000000000000009A
:102EC000EE07FE1F7E3E1E3C1E7C1E781E781E787E
:102ED0001E781E781E7C3E7C7E3EFE1FDE0F1E008E
:102EE0001E001E001E001E0000000000000000006A
:102EF000000000007F1FFF1FE71FC71F871F001F65
:102F0000001F001F001F001F001F001F001F001FC9
:102F1000001F000000000000000000000000000092
:102F20000000000000000000FC07FE1F0E1E003E17
:102F3000003E003FE01FFC07FE003E001E001E009A
:102F40003E3CFC3FF01F00000000000000000000BD
:102F5000000000000000800780078007FF7FFF7FE0
:102F60008007800780078007800780078007800729
:102F700080078007C007FF03FF010000000000007A
:102F80000000000000000000000000000000000041
:102F90001E3C1E3C1E3C1E3C1E3C1E3C1E3C1E3C61
:102FA0001E3C1E3C3E3C7E3CFE3EFE1FDE0F0000F3
:102FB0000000000000000000000000000000000011
:102FC0000000000007F00F780F781E3C1E3C1E3EEC
:102FD0003C1E3C1E780F780FF00FF007F007E0035F
:102FE000E0030000000000000000000000000000FE
:102FF000000000000000000003F0E3F1E3F3E7F35A
:10300000F7F3F7F3F77F777F7F7F7F7F7F7F3E3E0A
:103010003E3E3E3E3E3E000000000000000000003C
:103020000000000000000000000000000F7C1E3EB9
:103030003C3E3C1FF80FF007F007E003F007F807ED
:10304000F80F7C1E3E3E1F3C1F7800000000000071
:103050000000000000000000000000000000000070
:1030600007F80F780F7C1E3C1E3C3C1E3C1E3C1F8C
:10307000780FF80FF007F007E003E003C003C00388
:10308000C0038007800F007F0000000000000000E8
:1030900000000000FF3FFF3F1F003E007C00F800E3
:1030A000F001E003C007800F001F001E003CFF7FFF
:1030B000FF7F00000000000000000000FE01E003B0
:1030C000C003C003C003C003E001E001E001C00190
:1030D000C003803F803FC003C001E001E001E00188
:1030E000C003C003C003C003E003FE017E00000074
:1030F000C001C001C001C001C001C001C001C001C8
:10310000C001C001C001C001C001C001C001C001B7
:10311000C001C001C001C001C001C001C001C001A7
:10312000C0010000C03FE003E001E001E001E00178
:10313000C001C003C003C001E001FE00FE00E001C9
:10314000C001C003C003C001E001E001E001E001F3
:10315000E003C03F003F000000000000000000004E
:103160000000000000000000000000000000073F19
:10317000C77FE773FFF17EF0000000000000000051
:10318000000000000000000000000000000000003F
:10319000000000000000000000000000000000002F
:1031A000000000000000000000000000000000001F
:1031B0000000000C000C000C000C000C000C000CBB
:1031C000000C000C000C000C0000000C000C0000B7
:1031D000000000000000001B001B001B001B001B68
:1031E00000000000000000000000000000000000DF
:1031F0000000000000000000000080198019801904
:103200008019C07FC07F80190033C07FC07F00332A
:103210000033003300330000000000000000001EF7
:10322000003F807580650074003C001E000780052B
:10323000806580658075003F001E0004000400006A
:103240000000007000D840D8C0D880D900730006B4
:10325000000C801BC036C066C046C006800300005C
:10326000000000000000001E003F00330033003368
:10327000001E000CC03CC066806380618063C03E5D
:10328000801C0000000000000000000C000C000C7E
:10329000000C000C00000000000000000000000016
:1032A000000000000000000000000000800000019D
:1032B0000003000600060004000C000C000C000CCB
:1032C000000C000C00040006000600030001800052
:1032D000002000100018000C000C0004000600067E
:1032E00000060006000600060004000C000C001892
:1032F000001000200000000C002D003F001E0033D5
:1033000000000000000000000000000000000000BD
:103310000000000000000000000000000000000CA1
:10332000000C000C000CC0FFC0FF000C000C000CD7
:10333000000C000000000000000000000000000081
:10334000000000000000000000000000000000007D
:10335000000000000000000C000C00040004000845
:10336000000000000000000000000000000000005D
:103370000000001E001E0000000000000000000011
:10338000000000000000000000000000000000003D
:103390000000000000000000000000000000000C21
:1033A000000C000000000000000000030003000308
:1033B0000006000600060006000C000C000C000CC5
:1033C0000018001800180000000000000000001E97
:1033D000003F0033806180618061806D806D80611D
:1033E000806180610033003F001E0000000000008B
:1033F00000000006000E001E003600260006000633
:103400000006000600060006000600060006000092
:10341000000000000000001E003F8073806180619A
:10342000800100030006000C001800300060807F5F
:10343000807F0000000000000000001C003E0063D0
:1034400000630003000E000E000380018001806114
:103450008073003F001E0000000000000000000616
:10346000000E000E001E001E00160036003600661C
:10347000807F807F0006000600060000000000003C
:103480000000007F007F006000600060006E007F31
:1034900080638001800180618073003F001E000016
:1034A000000000000000001E003F803380610060CB
:1034B000006E007F80738061806180618033003F97
:1034C000001E0000000000000000807F807F80015F
:1034D0000003000300060006000C000C000C0008AE
:1034E0000018001800180000000000000000001E76
:1034F000003F8063806180610021001E003F806189
:10350000806180618061003F001E000000000000BB
:103510000000001E003F0073806180618061807345
:10352000803F801D800180610073003F001E00000D
:103530000000000000000000000000000000000C7F
:10354000000C000000000000000000000000000C63
:10355000000C00000000000000000000000000005F
:1035600000000000000C000C000000000000000043
:103570000000000C000C0004000400080000000023
:103580000000000080008003000E0038006000385A
:10359000000E80038000000000000000000000001A
:1035A00000000000000000000000807F807F00001D
:1035B0000000807F807F000000000000000000000D
:1035C000000000000000000000000000004000704B
:1035D000001C000780010007001C00700040000074
:1035E00000000000000000000000001F803FC071CC
:1035F000C060C000C00180030007000E000C000C7A
:103600000000000C000C0000000000000000001E84
:10361000003F803180718063806F806D806D806F2E
:10362000806700600032003E001C000000000000C7
:103630000000000E000E001B001B001B001B803151
:103640008031803F803F8031C060C060C06000003A
:10365000000000000000007C007E00630063006347
:103660000063007E007E0063806180618063007F74
:10367000007E0000000000000000001E003F8031BE
:103680008061006000600060006000600060806138
:103690008031003F001E0000000000000000007CA0
:1036A000007F0063806380618061806180618061F0
:1036B000806100630063007E007C00000000000069
:1036C0000000807F807F0060006000600060007FFD
:1036D000007F0060006000600060807F807F0000ED
:1036E000000000000000807F807F006000600060BC
:1036F0000060007F007F006000600060006000608C
:1037000000600000000000000000001E003F80314B
:103710008061006000600060806380638061806120
:103720008031803F001E000000000000000080612A
:1037300080618061806180618061807F807F806145
:103740008061806180618061806100000000000014
:103750000000003F003F000C000C000C000C000CAF
:10376000000C000C000C000C000C003F003F00009F
:1037700000000000000080018001800180018001C4
:103780008001800180018001806180618073003F41
:10379000001E0000000000000000C06080610063A7
:1037A00000660066006C0078007C006600660063BE
:1037B00080618061C06000000000000000000060C7
:1037C00000600060006000600060006000600060F9
:1037D000006000600060807F807F000000000000CB
:1037E0000000C071C071C07BC07AC06AC06AC06E80
:1037F000C064C060C060C060C060C060C0600000E5
:1038000000000000000080718071807980798079EB
:10381000806D806D806D8065806780678067806364
:1038200080630000000000000000001E003F003325
:103830008061806180618061806180618061806180
:103840000033003F001E0000000000000000007E6A
:10385000007F80638061806180618063007F007E83
:103860000060006000600060006000000000000078
:103870000000001E003F0033806180618061806134
:1038800080618061806580670033803F401E00005A
:10389000000000000000007E007F80638061806186
:1038A0008063007F007E006600630063806180614A
:1038B000C0600000000000000000000E001F80310A
:1038C000803100300038001E000780038061806175
:1038D0008031003F001E0000000000000000C0FF1B
:1038E000C0FF000C000C000C000C000C000C000CC5
:1038F000000C000C000C000C000C0000000000008C
:103900000000806180618061806180618061806190
:1039100080618061806180618073003F001E0000D3
:10392000000000000000C060C060C06080318031D5
:103930008031001B001B001B001B000E000E000E40
:1039400000040000000000000000C0C0C0C0C0C0F3
:10395000C0C0C0C0C0CC804C804C805E80528052C1
:103960008073806180610000000000000000C0C022
:10397000806080610033003B001E000C000C001EC4
:10398000001F003B80718061C0C00000000000008B
:103990000000C0C08061806100330033001E001E43
:1039A000000C000C000C000C000C000C000C0000C3
:1039B000000000000000803F803F80010003000302
:1039C0000006000C000C0018001800300060807F1A
:1039D000807F000000000000000F000F000C000CB2
:1039E000000C000C000C000C000C000C000C000C77
:1039F000000C000C000C000C000F000F0000001861
:103A000000180018000C000C000C000C000600064A
:103A10000006000600030003000300000000000091
:103A2000001E001E00060006000600060006000636
:103A30000006000600060006000600060006000656
:103A4000001E001E0000000C000C001E00120033BF
:103A50000033806180610000000000000000000071
:103A60000000000000000000000000000000000056
:103A70000000000000000000000000000000000046
:103A80000000000000000000E0FF0000000000381F
:103A90000018000C00000000000000000000000002
:103AA0000000000000000000000000000000000016
:103AB00000000000000000000000001F803F806147
:103AC0008001801F803F80618063807FC03800005C
:103AD0000000000000000060006000600060006EF8
:103AE000007F807380618061806180618073007F6E
:103AF000006E000000000000000000000000000058
:103B00000000001E003F80738061006000608061E3
:103B10008073003F001E00000000000000008001D4
:103B2000800180018001801D803F80738061806101
:103B3000806180618073803F801D00000000000074
:103B400000000000000000000000001E003F0073A5
:103B50008061807F807F00608071003F001E0000D8
:103B6000000000000000C007C00F000C000C807FA8
:103B7000807F000C000C000C000C000C000C000CF2
:103B8000000C000000000000000000000000000029
:103B9000801D803F8073806180618061806180735F
:103BA000803F801D80018063007F003E0000006038
:103BB000006000600060006F807F807180618061C4
:103BC0008061806180618061806100000000000090
:103BD00000000006000600000000003E003E000657
:103BE00000060006000600060006000600060000AB
:103BF000000000000006000600000000003E003E3D
:103C00000006000600060006000600060006000684
:103C100000060046007E003C00000060006000607E
:103C20000060806100630066006C007C00760063C9
:103C300000638061C0600000000000000000003EE2
:103C4000003E00060006000600060006000600060C
:103C50000006000600060006000600000000000046
:103C60000000000000000000000080DDC0FFC0CEAA
:103C7000C0CCC0CCC0CCC0CCC0CCC0CCC0CC000070
:103C80000000000000000000000000000000006FC5
:103C9000807F8071806180618061806180618061EE
:103CA0008061000000000000000000000000000033
:103CB0000000001E003F8073806180618061806130
:103CC0008073003F001E00000000000000000000A4
:103CD00000000000006E007F807380618061806161
:103CE00080618073007F006E006000600060006093
:103CF0000000000000000000801D803F8073806194
:103D00008061806180618073803F801D80018001BF
:103D1000800180010000000000000000000000673A
:103D2000803F00390030003000300030003000307B
:103D30000030000000000000000000000000000053
:103D40000000001E803F80610060007F803F800196
:103D50008061007F001E00000000000000000000E5
:103D6000000800180018007F007F001800180018D5
:103D7000001800180018801F800F000000000000CD
:103D80000000000000000000000080618061806190
:103D900080618061806180618063807F803D000000
:103DA0000000000000000000000000000000C060F3
:103DB000803180318031001B001B001B000E000E83
:103DC00000060000000000000000000000000000ED
:103DD000000080DD80DD80DD005500550055007756
:103DE0000077002200220000000000000000000018
:103DF000000000000000806100330033001E000C52
:103E0000000C001E00330033806100000000000041
:103E100000000000000000008061806180310033FC
:103E20000033001B001B001B000E000E000E001CC8
:103E3000007C007000000000000000000000C07F57
:103E4000C07F800100030006000C00180030C07F16
:103E5000C07F00000000000080038007000600060D
:103E6000000600060006000E001C001C000E0006E6
:103E70000006000600060006800780030006000614
:103E80000006000600060006000600060006000602
:103E900000060006000600060006000600060006F2
:103EA0000038003C000C000C000C000C000C000E54
:103EB00000070007000E000C000C000C000C000CAA
:103EC000003C00380000000000000000000000007E
:103ED00000008038807F00470000000000000000E4
:103EE00000000000000000000000000000000000D2
:103EF00000000000000000000000000000100010A2
:103F00000010001000100010000000100000000061
:103F10000028002800280000000000000000000029
:103F20000000000000240024007C00240048007CE5
:103F300000480048000000000038005400500038DD
:103F400000140054005400380010000000200054F9
:103F50000058003000280054001400080000000041
:103F600000100028002800100034004800480034E9
:103F70000000000000100010001000000000000011
:103F800000000000000000000008001000200020D9
:103F90000020002000200020001000080020001059
:103FA00000080008000800080008000800100020B1
:103FB0000010003800100028000000000000000081
:103FC000000000000000000000100010007C001045
:103FD00000100000000000000000000000000000D1
:103FE00000000000000000100010001000000000A1
:103FF0000000000000000038000000000000000089
:1040000000000000000000000000000000000010A0
:104010000000000000080008001000100010001050
:10402000002000200000000000380044004400543C
:10403000004400440044003800000000001000303C
:1040400000500010001000100010001000000000D0
:104050000038004400440004000800100020007CE8
:1040600000000000003800440004001800040004B0
:104070000044003800000000000800180028002854
:104080000048007C0008000800000000007C0040A0
:1040900000400078000400040044003800000000E4
:1040A00000380044004000780044004400440038D8
:1040B00000000000007C0004000800100010002038
:1040C00000200020000000000038004400440038B8
:1040D0000044004400440038000000000038004460
:1040E00000440044003C000400440038000000008C
:1040F00000000000001000000000000000000010A0
:10410000000000000000000000000010000000009F
:10411000000000100010001000000000000C003033
:1041200000400030000C0000000000000000000013
:104130000000007C0000007C000000000000000087
:10414000000000000060001800040018006000007B
:1041500000000000003800440004000800100010B7
:10416000000000100000000000380044004C005423
:10417000005C0040004000380000000000100028F3
:10418000002800280028007C0044004400000000B3
:104190000078004400440078004400440044007863
:1041A0000000000000380044004000400040004093
:1041B0000044003800000000007000480044004443
:1041C000004400440048007000000000007C0040F3
:1041D0000040007C004000400040007C00000000E7
:1041E000007C00400040007800400040004000405B
:1041F000000000000038004400400040005C004423
:104200000044003800000000004400440044007CEA
:104210000044004400440044000000000038001046
:104220000010001000100010001000380000000006
:1042300000040004000400040004000400440038EA
:10424000000000000044004800500060005000489A
:1042500000480044000000000040004000400040D2
:10426000004000400040007C000000000044006C62
:10427000006C00540044004400440044000000006E
:1042800000440064006400540054004C004C00449E
:104290000000000000380044004400440044004492
:1042A000004400380000000000780044004400444E
:1042B000007800400040004000000000003800444A
:1042C000004400440044004400540038000400004E
:1042D000007800440044004400780048004800444E
:1042E00000000000003800440040003000080004D6
:1042F0000044003800000000007C00100010001096
:1043000000100010001000100000000000440044E5
:104310000044004400440044004400380000000011
:104320000044004400440028002800280010001029
:104330000000000000440044005400540054006C8D
:104340000028002800000000004400280028001079
:104350000010002800280044000000000044004431
:1043600000280028001000100010001000000000BD
:10437000007C000400080010001000200040007CB9
:1043800000000000001800100010001000100010C5
:104390000010001000100018002000200010001075
:1043A000001000100008000800000000003000109D
:1043B000001000100010001000100010001000305D
:1043C0000010002800280044000000000000000049
:1043D00000000000000000000000000000000000DD
:1043E00000000000000000FE00200010000000009F
:1043F00000000000000000000000000000000000BD
:1044000000380044003C0044004C00340000000030
:10441000004000400058006400440044006400581C
:104420000000000000000000003800440040004090
:104430000044003800000000000400040034004C78
:1044400000440044004C0034000000000000000064
:1044500000380044007C00400044003800000000A8
:10446000000C0010007C0010001000100010001064
:1044700000000000000000000034004C0044004434
:10448000004C0034000400780040004000580064F4
:1044900000440044004400440000000000100000FC
:1044A000007000100010001000100010000000004C
:1044B000001000000070001000100010001000102C
:1044C000001000E000400040004800500060005034
:1044D00000480044000000000070001000100010B0
:1044E000001000100010001000000000000000008C
:1044F00000780054005400540054005400000000A0
:1045000000000000005800640044004400440044DF
:104510000000000000000000003800440044004497
:104520000044003800000000000000000058006453
:1045300000440044006400580040004000000000B7
:104540000034004C00440044004C003400040004DB
:10455000000000000058006400400040004000409F
:104560000000000000000000003800440030000897
:1045700000440038000000000020002000780020E7
:1045800000200020002000180000000000000000B3
:104590000044004400440044004C0034000000008B
:1045A00000000000004400440028002800280010FB
:1045B0000000000000000000005400540054006C93
:1045C000002800280000000000000000004400282F
:1045D000001000100028004400000000000000004F
:1045E0000044004400280028001000100010006063
:1045F00000000000007C0008001000200040007C4B
:104600000000000000180010001000100020002022
:104610000010001000100018001000100010001012
:1046200000100010001000100010001000300010EA
:1046300000100010000800080010001000100030EA
:104640000000000000000074004C000000000000AA
:104650000000000000000000000000000102030450
:1046600006070809000000000102030448656C6C9D
:104670006F20576F726C640053444B2D312E314DB7
:044680000000000036
:0846840074BBFF7F0100000080
:04468C00AD01000874
:044690008901000894
:10469400101A0000401E00080B1200008C310008A4
:1046A400070A0000E83E00080024F40001000000AE
:0446B40010000000F2
:0400000508001D7D55
:00000001FF
